{
  "contractName": "Bets",
  "abi": [
    {
      "anonymous": false,
      "inputs": [
        {
          "indexed": true,
          "internalType": "uint256",
          "name": "_betId",
          "type": "uint256"
        },
        {
          "indexed": false,
          "internalType": "string",
          "name": "_title",
          "type": "string"
        },
        {
          "indexed": false,
          "internalType": "uint256",
          "name": "_amount",
          "type": "uint256"
        }
      ],
      "name": "BetCreated",
      "type": "event"
    },
    {
      "anonymous": false,
      "inputs": [
        {
          "indexed": true,
          "internalType": "uint256",
          "name": "_betId",
          "type": "uint256"
        },
        {
          "indexed": false,
          "internalType": "address",
          "name": "_winner",
          "type": "address"
        },
        {
          "indexed": false,
          "internalType": "address",
          "name": "_looser",
          "type": "address"
        }
      ],
      "name": "BetFullfilled",
      "type": "event"
    },
    {
      "anonymous": false,
      "inputs": [
        {
          "indexed": true,
          "internalType": "uint256",
          "name": "_betId",
          "type": "uint256"
        },
        {
          "indexed": false,
          "internalType": "string",
          "name": "_title",
          "type": "string"
        }
      ],
      "name": "BetOpenApproved",
      "type": "event"
    },
    {
      "anonymous": false,
      "inputs": [
        {
          "indexed": true,
          "internalType": "uint256",
          "name": "_betId",
          "type": "uint256"
        },
        {
          "indexed": false,
          "internalType": "string",
          "name": "_title",
          "type": "string"
        }
      ],
      "name": "BettorJoined",
      "type": "event"
    },
    {
      "inputs": [
        {
          "internalType": "uint256",
          "name": "",
          "type": "uint256"
        }
      ],
      "name": "bets",
      "outputs": [
        {
          "internalType": "uint256",
          "name": "id",
          "type": "uint256"
        },
        {
          "internalType": "string",
          "name": "title",
          "type": "string"
        },
        {
          "internalType": "uint256",
          "name": "amount",
          "type": "uint256"
        },
        {
          "internalType": "address",
          "name": "creator",
          "type": "address"
        },
        {
          "internalType": "address",
          "name": "bettor",
          "type": "address"
        },
        {
          "internalType": "enum Bets.BetStatus",
          "name": "status",
          "type": "uint8"
        }
      ],
      "stateMutability": "view",
      "type": "function",
      "constant": true
    },
    {
      "inputs": [],
      "name": "betsCount",
      "outputs": [
        {
          "internalType": "uint256",
          "name": "",
          "type": "uint256"
        }
      ],
      "stateMutability": "view",
      "type": "function",
      "constant": true
    },
    {
      "inputs": [
        {
          "internalType": "string",
          "name": "_title",
          "type": "string"
        }
      ],
      "name": "createBet",
      "outputs": [],
      "stateMutability": "payable",
      "type": "function",
      "payable": true
    },
    {
      "inputs": [
        {
          "internalType": "uint256",
          "name": "_id",
          "type": "uint256"
        }
      ],
      "name": "approveBetOpen",
      "outputs": [],
      "stateMutability": "nonpayable",
      "type": "function"
    },
    {
      "inputs": [
        {
          "internalType": "uint256",
          "name": "_id",
          "type": "uint256"
        },
        {
          "internalType": "address payable",
          "name": "_winner",
          "type": "address"
        }
      ],
      "name": "closeBet",
      "outputs": [],
      "stateMutability": "nonpayable",
      "type": "function"
    },
    {
      "inputs": [
        {
          "internalType": "uint256",
          "name": "_id",
          "type": "uint256"
        }
      ],
      "name": "joinBet",
      "outputs": [],
      "stateMutability": "payable",
      "type": "function",
      "payable": true
    }
  ],
  "bytecode": "0x608060405234801561001057600080fd5b50611460806100206000396000f3fe6080604052600436106100555760003560e01c80631a8ba72f1461005a57806322af00fa146100855780632a4adce0146100c757806331f8a00d146100f057806339fb3f4514610119578063b3a2357814610135575b600080fd5b34801561006657600080fd5b5061006f610151565b60405161007c9190611080565b60405180910390f35b34801561009157600080fd5b506100ac60048036038101906100a79190610cee565b610157565b6040516100be9695949392919061109b565b60405180910390f35b3480156100d357600080fd5b506100ee60048036038101906100e99190610d17565b610268565b005b3480156100fc57600080fd5b5061011760048036038101906101129190610cee565b6105ae565b005b610133600480360381019061012e9190610cee565b610661565b005b61014f600480360381019061014a9190610cad565b61091d565b005b60015481565b6000602052806000526040600020600091509050806000015490806001018054610180906112a0565b80601f01602080910402602001604051908101604052809291908181526020018280546101ac906112a0565b80156101f95780601f106101ce576101008083540402835291602001916101f9565b820191906000526020600020905b8154815290600101906020018083116101dc57829003601f168201915b5050505050908060020154908060030160009054906101000a900473ffffffffffffffffffffffffffffffffffffffff16908060040160009054906101000a900473ffffffffffffffffffffffffffffffffffffffff16908060040160149054906101000a900460ff16905086565b6000806000848152602001908152602001600020905060048160040160146101000a81548160ff021916908360058111156102cc577f4e487b7100000000000000000000000000000000000000000000000000000000600052602160045260246000fd5b02179055508060030160009054906101000a900473ffffffffffffffffffffffffffffffffffffffff1673ffffffffffffffffffffffffffffffffffffffff168273ffffffffffffffffffffffffffffffffffffffff16141561041f578060030160009054906101000a900473ffffffffffffffffffffffffffffffffffffffff1673ffffffffffffffffffffffffffffffffffffffff166108fc82600201549081150290604051600060405180830381858888f19350505050158015610397573d6000803e3d6000fd5b50827fa726c869d586ca3a3334a12bdcf211a2ed155834f633ddbe20137d64fa0b15e68260030160009054906101000a900473ffffffffffffffffffffffffffffffffffffffff168360040160009054906101000a900473ffffffffffffffffffffffffffffffffffffffff16604051610412929190610f85565b60405180910390a26105a9565b8060040160009054906101000a900473ffffffffffffffffffffffffffffffffffffffff1673ffffffffffffffffffffffffffffffffffffffff168273ffffffffffffffffffffffffffffffffffffffff16141561056d578060040160009054906101000a900473ffffffffffffffffffffffffffffffffffffffff1673ffffffffffffffffffffffffffffffffffffffff166108fc82600201549081150290604051600060405180830381858888f193505050501580156104e5573d6000803e3d6000fd5b50827fa726c869d586ca3a3334a12bdcf211a2ed155834f633ddbe20137d64fa0b15e68260040160009054906101000a900473ffffffffffffffffffffffffffffffffffffffff168360030160009054906101000a900473ffffffffffffffffffffffffffffffffffffffff16604051610560929190610f85565b60405180910390a26105a8565b6040517f08c379a000000000000000000000000000000000000000000000000000000000815260040161059f90611000565b60405180910390fd5b5b505050565b600160008083815260200190815260200160002060040160146101000a81548160ff0219169083600581111561060d577f4e487b7100000000000000000000000000000000000000000000000000000000600052602160045260246000fd5b0217905550807f27b812280e232961b739a23142fe1bc33bbd6ea684bdcf47b91685a25eef29c76000808481526020019081526020016000206001016040516106569190610fde565b60405180910390a250565b8060008082815260200190815260200160002060030160009054906101000a900473ffffffffffffffffffffffffffffffffffffffff1673ffffffffffffffffffffffffffffffffffffffff163373ffffffffffffffffffffffffffffffffffffffff161415610706576040517f08c379a00000000000000000000000000000000000000000000000000000000081526004016106fd90611060565b60405180910390fd5b60016005811115610740577f4e487b7100000000000000000000000000000000000000000000000000000000600052602160045260246000fd5b60008084815260200190815260200160002060040160149054906101000a900460ff16600581111561079b577f4e487b7100000000000000000000000000000000000000000000000000000000600052602160045260246000fd5b146107db576040517f08c379a00000000000000000000000000000000000000000000000000000000081526004016107d290611040565b60405180910390fd5b3360008084815260200190815260200160002060040160006101000a81548173ffffffffffffffffffffffffffffffffffffffff021916908373ffffffffffffffffffffffffffffffffffffffff16021790555060008083815260200190815260200160002060020154346108509190611195565b60008084815260200190815260200160002060020181905550600260008084815260200190815260200160002060040160146101000a81548160ff021916908360058111156108c8577f4e487b7100000000000000000000000000000000000000000000000000000000600052602160045260246000fd5b0217905550817f792a1f555d959fb364235524f99cb13dc4161ab8dc3619f6f2aee32f90fd89556000808581526020019081526020016000206001016040516109119190610fde565b60405180910390a25050565b60003411610960576040517f08c379a000000000000000000000000000000000000000000000000000000000815260040161095790611020565b60405180910390fd5b60016000815480929190610973906112d2565b91905055506040518060c0016040528060015481526020018281526020013481526020013373ffffffffffffffffffffffffffffffffffffffff168152602001600073ffffffffffffffffffffffffffffffffffffffff16815260200160006005811115610a0a577f4e487b7100000000000000000000000000000000000000000000000000000000600052602160045260246000fd5b8152506000806001548152602001908152602001600020600082015181600001556020820151816001019080519060200190610a47929190610b78565b506040820151816002015560608201518160030160006101000a81548173ffffffffffffffffffffffffffffffffffffffff021916908373ffffffffffffffffffffffffffffffffffffffff16021790555060808201518160040160006101000a81548173ffffffffffffffffffffffffffffffffffffffff021916908373ffffffffffffffffffffffffffffffffffffffff16021790555060a08201518160040160146101000a81548160ff02191690836005811115610b31577f4e487b7100000000000000000000000000000000000000000000000000000000600052602160045260246000fd5b02179055509050506001547fcdebbaf6a57d20bf7a10d7fc20531a1574c22867908778f597d2c326718cd4578234604051610b6d929190610fae565b60405180910390a250565b828054610b84906112a0565b90600052602060002090601f016020900481019282610ba65760008555610bed565b82601f10610bbf57805160ff1916838001178555610bed565b82800160010185558215610bed579182015b82811115610bec578251825591602001919060010190610bd1565b5b509050610bfa9190610bfe565b5090565b5b80821115610c17576000816000905550600101610bff565b5090565b6000610c2e610c2984611134565b611103565b905082815260208101848484011115610c4657600080fd5b610c5184828561125e565b509392505050565b600081359050610c68816113fc565b92915050565b600082601f830112610c7f57600080fd5b8135610c8f848260208601610c1b565b91505092915050565b600081359050610ca781611413565b92915050565b600060208284031215610cbf57600080fd5b600082013567ffffffffffffffff811115610cd957600080fd5b610ce584828501610c6e565b91505092915050565b600060208284031215610d0057600080fd5b6000610d0e84828501610c98565b91505092915050565b60008060408385031215610d2a57600080fd5b6000610d3885828601610c98565b9250506020610d4985828601610c59565b9150509250929050565b610d5c816111eb565b82525050565b610d6b8161124c565b82525050565b6000610d7c82611179565b610d868185611184565b9350610d9681856020860161126d565b610d9f816113d7565b840191505092915050565b60008154610db7816112a0565b610dc18186611184565b94506001821660008114610ddc5760018114610dee57610e21565b60ff1983168652602086019350610e21565b610df785611164565b60005b83811015610e1957815481890152600182019150602081019050610dfa565b808801955050505b50505092915050565b6000610e37602283611184565b91507f496e76616c69642073656e64657220666f7220636c6f73696e6720746865206260008301527f65740000000000000000000000000000000000000000000000000000000000006020830152604082019050919050565b6000610e9d601883611184565b91507f4e6f7420656e6f7567682045544820746f20656e7465722e00000000000000006000830152602082019050919050565b6000610edd601b83611184565b91507f426574206973206e6f74206f70656e20666f72206a6f696e696e6700000000006000830152602082019050919050565b6000610f1d602383611184565b91507f4265742063726561746f722063616e27742075736520746869732066756e637460008301527f696f6e00000000000000000000000000000000000000000000000000000000006020830152604082019050919050565b610f7f81611242565b82525050565b6000604082019050610f9a6000830185610d53565b610fa76020830184610d53565b9392505050565b60006040820190508181036000830152610fc88185610d71565b9050610fd76020830184610f76565b9392505050565b60006020820190508181036000830152610ff88184610daa565b905092915050565b6000602082019050818103600083015261101981610e2a565b9050919050565b6000602082019050818103600083015261103981610e90565b9050919050565b6000602082019050818103600083015261105981610ed0565b9050919050565b6000602082019050818103600083015261107981610f10565b9050919050565b60006020820190506110956000830184610f76565b92915050565b600060c0820190506110b06000830189610f76565b81810360208301526110c28188610d71565b90506110d16040830187610f76565b6110de6060830186610d53565b6110eb6080830185610d53565b6110f860a0830184610d62565b979650505050505050565b6000604051905081810181811067ffffffffffffffff8211171561112a576111296113a8565b5b8060405250919050565b600067ffffffffffffffff82111561114f5761114e6113a8565b5b601f19601f8301169050602081019050919050565b60008190508160005260206000209050919050565b600081519050919050565b600082825260208201905092915050565b60006111a082611242565b91506111ab83611242565b9250827fffffffffffffffffffffffffffffffffffffffffffffffffffffffffffffffff038211156111e0576111df61131b565b5b828201905092915050565b60006111f682611222565b9050919050565b600061120882611222565b9050919050565b600081905061121d826113e8565b919050565b600073ffffffffffffffffffffffffffffffffffffffff82169050919050565b6000819050919050565b60006112578261120f565b9050919050565b82818337600083830152505050565b60005b8381101561128b578082015181840152602081019050611270565b8381111561129a576000848401525b50505050565b600060028204905060018216806112b857607f821691505b602082108114156112cc576112cb611379565b5b50919050565b60006112dd82611242565b91507fffffffffffffffffffffffffffffffffffffffffffffffffffffffffffffffff8214156113105761130f61131b565b5b600182019050919050565b7f4e487b7100000000000000000000000000000000000000000000000000000000600052601160045260246000fd5b7f4e487b7100000000000000000000000000000000000000000000000000000000600052602160045260246000fd5b7f4e487b7100000000000000000000000000000000000000000000000000000000600052602260045260246000fd5b7f4e487b7100000000000000000000000000000000000000000000000000000000600052604160045260246000fd5b6000601f19601f8301169050919050565b600681106113f9576113f861134a565b5b50565b611405816111fd565b811461141057600080fd5b50565b61141c81611242565b811461142757600080fd5b5056fea26469706673582212209cb364a61e4e1876b774ae6ee00333d60d433b295fced43956211e5d8e8fb30164736f6c63430008000033",
  "immutableReferences": {},
  "source": "// SPDX-License-Identifier: MIT\r\n\r\npragma solidity ^0.8.0;\r\n\r\ncontract Bets {\r\n    struct Bet {\r\n        uint256 id;\r\n        string title;\r\n        uint256 amount;\r\n        address creator;\r\n        address bettor;\r\n        BetStatus status;\r\n    }\r\n\r\n    enum BetStatus {\r\n        PENDING_OPEN_VALIDATION,\r\n        OPEN,\r\n        IN_PROGRESS,\r\n        PENDING_FULFILLMENT_VALIDATION,\r\n        CLOSED,\r\n        CANCELLED\r\n    }\r\n\r\n    mapping(uint256 => Bet) public bets;\r\n\r\n    uint256 public betsCount;\r\n\r\n    event BetCreated(uint256 indexed _betId, string _title, uint256 _amount);\r\n    event BettorJoined(uint256 indexed _betId, string _title);\r\n    event BetOpenApproved(uint256 indexed _betId, string _title);\r\n    event BetFullfilled(uint256 indexed _betId, address _winner, address _looser);\r\n\r\n    modifier onlyCreator(uint256 _betId) {\r\n        require(msg.sender == bets[_betId].creator, \"Only the creator can use this function\");\r\n        _;\r\n    }\r\n\r\n    modifier onlyBettor(uint256 _betId) {\r\n        require(msg.sender != bets[_betId].creator, \"Bet creator can't use this function\");\r\n        _;\r\n    }\r\n\r\n    function createBet(string memory _title) public payable {\r\n        require(msg.value > 0, \"Not enough ETH to enter.\");\r\n        betsCount++;\r\n        bets[betsCount] = Bet(\r\n            betsCount,\r\n            _title,\r\n            msg.value,\r\n            msg.sender,\r\n            address(0),\r\n            BetStatus.PENDING_OPEN_VALIDATION\r\n        );\r\n\r\n        emit BetCreated(betsCount, _title, msg.value);\r\n    }\r\n\r\n    function approveBetOpen(uint256 _id) public {\r\n        bets[_id].status = BetStatus.OPEN;\r\n        emit BetOpenApproved(_id, bets[_id].title);\r\n    }\r\n\r\n    function closeBet(uint256 _id, address payable _winner) public {\r\n        Bet storage bet = bets[_id];\r\n        bet.status = BetStatus.CLOSED;\r\n        if (_winner == bet.creator) {\r\n            // Creator is the winner, transfer the bet amount to the creator\r\n            payable(bet.creator).transfer(bet.amount);\r\n            emit BetFullfilled(_id, bet.creator, bet.bettor);\r\n        } else if (_winner == bet.bettor) {\r\n            // Bettor is the winner, transfer the bet amount to the bettor\r\n            payable(bet.bettor).transfer(bet.amount);\r\n            emit BetFullfilled(_id, bet.bettor, bet.creator);\r\n        } else {\r\n            // Neither the creator nor the bettor, something went wrong\r\n            revert(\"Invalid sender for closing the bet\");\r\n        }\r\n    }\r\n\r\n    function joinBet(uint256 _id) public payable onlyBettor(_id) {\r\n        require(bets[_id].status == BetStatus.OPEN, \"Bet is not open for joining\");\r\n\r\n        bets[_id].bettor = msg.sender;\r\n        bets[_id].amount = msg.value + bets[_id].amount;\r\n        bets[_id].status = BetStatus.IN_PROGRESS;\r\n        emit BettorJoined(_id, bets[_id].title);\r\n    }\r\n}\r\n",
  "sourcePath": "C:\\workspace\\Pole\\Blockchain\\p2p-bets-contracts\\contracts\\Bets.sol",
  "compiler": {
    "name": "solc",
    "version": "0.8.0+commit.c7dfd78e.Emscripten.clang"
  },
  "schemaVersion": "3.4.14",
  "updatedAt": "2024-01-27T02:55:51.270Z",
  "networkType": "ethereum",
  "devdoc": {
    "kind": "dev",
    "methods": {},
    "version": 1
  },
  "userdoc": {
    "kind": "user",
    "methods": {},
    "version": 1
  }
}